:0400000032EF00F0EB
:0A000800F2B2F292F0B0F090110095
:100012001FC0C9FFC7B002D00000FCD7C9CF00F093
:020022001200CA
:100024000900F5CFE6FF0006FBE10106F9E1120045
:10003400FF0E156EFF0E166EFF0E176EFF0E186E76
:10004400120E196E000E1A6E1F0E1B6E000E1C6E21
:10005400949A94969488C66A400EC76EC68A120013
:10006400FF0E1D6EFF0E1E6E946AE2DF1EC000F0CE
:10007400000E1EBEFF0E016E0F0E0014006E300E39
:1000840000101F6E8290C3DFFF0E1F6EC0DF8280E0
:04009400FFD7FFD7BC
:020000040030CA
:0D000100220F0EFF0181FF0FC00FE00F4026
:00000001FF
