:04000000F1EF0AF022
:1000080000C018F001C017F00CC016F00DC015F0B4
:10001800F5CF1CF0F8CF19F0F7CF1AF0F6CF1BF098
:100028009EACEAD0010E616EB5DAC3CF00F001ECE8
:1000380008F000C042F001C043F002C044F003C021
:1000480045F042C02BF043C02CF044C02DF045C011
:100058002EF0C4CF01F0006A83EC07F042C004F030
:1000680043C005F044C006F045C007F0D1DA00C02F
:100078002BF001C02CF002C02DF003C02EF0520E60
:10008800046E270E056E200E066E770E076EF2D9E7
:1000980000C02BF001C02CF002C02DF003C02EF0E0
:1000A80000C004F001C005F002C006F003C007F06C
:1000B800000E006E000E016E200E026E810E036EA1
:1000C800C6EC06F0000E046E000E056E000E066EFD
:1000D8007F0E076EC3EC06F000C02BF001C02CF0B9
:1000E80002C02DF003C02EF0000E046ED60E056E71
:1000F800030E066E910E076EBDD900C02BF001C02D
:100108002CF002C02DF003C02EF0000E046E600E1D
:10011800056E6A0E066E8C0E076EC6EC06F000C001
:1001280046F001C047F002C048F003C049F010ECA7
:1001380008F0000E046E000E056E150E066E870E92
:10014800076E98D9000E046EE00E056E760E066EE8
:100158008A0E076E5DDA00C004F001C005F002C027
:1001680006F003C007F0600E006EB00E016E0F0EB1
:10017800026E930E036EC6EC06F000C02FF001C0AD
:1001880030F002C031F003C032F0330E046E930E2B
:10019800056E080E066E870E076EC3EC06F000C0EB
:1001A8002FF001C030F002C031F003C032F000C0BF
:1001B80046F001C047F002C048F003C049F0340ED1
:1001C8004A6E000E4B6EA6EC08F0010E466E010E4C
:1001D800476E340E486E000E496EB2EC0AF0210EDE
:1001E800466E000E476E91EC08F0830ED56E0B0E2E
:1001F800D76EDC0ED66E9E9CF2A403D0C284D59E28
:10020800F2941CC0F5FF19C0F8FF1AC0F7FF1BC015
:10021800F6FF18C000F017C001F016C00CF015C0AA
:040228000DF01100C4
:10022C000B820BAE20EF01F00368026801680068D6
:08023C000A360232FF0E120027
:0E024400026A016A006A086A036A000E12006C
:100252000B840BAE34EF01F0010E036E026A016AE9
:0A026200006A0A360232FF0E120095
:08026C000AAE029E000E120012
:0A027400210E0D6E0D2EFED71200B4
:10027E000CB081EF01F00CA227EF02F00E6A000E17
:10028E00026498EF01F0F00E0214D8A463EF01F0AF
:10029E00023A01380F0B02260138F00B016E0038BE
:1002AE000F0B01260038F00B006E08380F0B0026DE
:1002BE000838F00B086E0E84D89002BE7CEF01F069
:1002CE0008360036013602360E2A02BE7CEF01F0E9
:1002DE0008360036013602360E2A02BE7CEF01F0D9
:1002EE0008360036013602360E2A0E5003641DEF14
:1002FE0002F0035E0BBC08AE22EF02F0D880800E37
:10030E0008640030000E002201220222D8A022EF43
:10031E0002F0023201320032034A27EF02F022EFDE
:10032E0002F001C002F000C001F008C000F0086A3F
:10033E00000E0E860264CFEF01F0F00E0214D8A468
:10034E00B7EF01F0023A01380F0B02260138F00B1D
:10035E00016E00380F0B01260038F00B006E0E8474
:10036E00D89002BE7CEF01F00036013602360E2A1E
:10037E0002BE7CEF01F00036013602360E2A02BEB6
:10038E007CEF01F00036013602360E2A7CEF01F0CA
:10039E0001C002F000C001F0006A000E0E960E8839
:1003AE000264FCEF01F0F00E0214D8A4E7EF01F0A6
:1003BE00023A01380F0B02260138F00B016E0E8443
:1003CE00D89002BE7CEF01F0013602360E2A02BE34
:1003DE007CEF01F0013602360E2A02BE7CEF01F0F0
:1003EE00013602360E2A7CEF01F001C002F0016ADE
:1003FE00000E0E8602642CEF02F0F00E0214D8A44A
:10040E000BEF02F0023A0E84D89002BE7CEF01F0A0
:10041E0002360E2A02BE7CEF01F002360E2A02BE12
:10042E007CEF01F002360E2A7CEF01F0010E0C6E0D
:10043E0009DF2FEF02F0020E0C6E11DF2FEF02F02C
:10044E00040E0C6EECDE2FEF02F0080E0C6EF3DED7
:02045E0012008A
:100460000F0E0C6E470E0D6E0D2EFED70C2EFCD708
:0604700000000000120074
:060476000000000012006E
:10047C00086A096A000E07620364C3EF02F00250B7
:10048C0006180A6E075003267E0ED8A054EF02F011
:10049C00035ED8B0C7EF02F058EF02F0035ED8A0AD
:1004AC00CBEF02F0028E068E02C00EF001C00BF0F4
:1004BC0000C00DF000500402F4CF0CF00150050206
:1004CC00F4CF00F0F3CF08F00402F3500C26F450F4
:1004DC000822000E00220D500502F3500C26F45099
:1004EC000822000E002202500402F3500826F45099
:1004FC00002202500502016A000E0122F350002670
:10050C00F45001220D500602F3500826F45000223C
:10051C00026A000E012202220B500602F350002642
:10052C00F4500122000E02220E500602F350012656
:10053C00F450022202BEABEF02F008360036013650
:10054C0002360306D8B4CBEF02F0BEEF02F0D8802F
:10055C00800E08640030000E002201220222D8A076
:10056C00BEEF02F0023201320032034AC7EF02F052
:10057C000AAE029E000ECDEF02F0010E5DDECDEF55
:10058C0002F0020E4DDECDEF02F0040E5CDE120026
:10059C0061BE02D0839E01D0838E61BC02D0839C4D
:1005AC0001D0838C61BA02D0839A01D0838A61B85E
:1005BC0002D0839801D0838833B002D0838401D0D9
:1005CC008394838652DF839661B602D0839E01D0DA
:1005DC00838E61B402D0839C01D0838C61B202D033
:1005EC00839A01D0838A61B002D0839801D083882A
:1005FC0033B002D0838401D08394838636DF839614
:0C060C0033A002D027DF01D02FDE120047
:10061800025006180E6E086A096A0B6A03500764CE
:10062800FFEF03F006500A6E068E028E03500B6E23
:100638000750036E000E0B644FEF03F00B50075E7C
:10064800D8B4F0EF03F0070E0764BEEF03F0075EBF
:1006580000C008F001C000F002C001F0026A074EB5
:10066800F0EF03F0076493EF03F0075E00C008F0B3
:1006780001C000F0016A074EF0EF03F0076471EF64
:1006880003F0075E00C008F0006A074EF0EF03F0C1
:10069800076458EF03F00AC002F005C001F004C077
:1006A80000F0086A1AEF05F0030E076463EF03F021
:1006B800075E08380F0B086E074EF0EF03F0D8906E
:1006C8000832074EF0EF03F0D8900832074EF0EFEB
:1006D80003F0D8900832F0EF03F0030E076482EFBE
:1006E80003F0075E08380F0B086E0038F00B082679
:1006F80000380F0B006E074EF0EF03F0D890003271
:100708000832074EF0EF03F0D89000320832074E57
:10071800F0EF03F0D89000320832F0EF03F0030E48
:100728000764AAEF03F0075E08380F0B086E00385D
:10073800F00B082600380F0B006E0138F00B00266E
:1007480001380F0B016E074EF0EF03F0D89001321D
:1007580000320832074EF0EF03F0D8900132003231
:100768000832074EF0EF03F0D89001320032083219
:10077800F0EF03F0030E0764DBEF03F0075E0838C1
:100788000F0B086E0038F00B082600380F0B006EB0
:100798000138F00B002601380F0B016E0238F00B00
:1007A800012602380F0B026E074EF0EF03F0D890C7
:1007B8000232013200320832074EF0EF03F0D890CF
:1007C8000232013200320832074EF0EF03F0D890BF
:1007D8000232013200320832096A000E0EAEE4EF2E
:1007E80004F0081E001E011E021E082A0022012213
:1007F8000222E4EF04F00750D8A405EF04F01AEF42
:1008080005F0096A02C00AF0028E068E0750035CE2
:10081800076ED8B4D7EF04F0070E0764A5EF04F00D
:10082800075E0450096E0550046E0650056E066A90
:10083800074ED7EF04F0070E07647AEF04F0075E5F
:100848000450096E0550046E056A074ED7EF04F090
:10085800070E076458EF04F0075E0450096E046A37
:10086800074ED7EF04F0070E07643FEF04F00AC005
:1008780002F01AEF05F0030E07644AEF04F0075E72
:1008880009380F0B096E074ED7EF04F0D8900932DC
:10089800074ED7EF04F0D8900932074ED7EF04F08F
:1008A800D8900932D7EF04F0030E076469EF04F01B
:1008B800075E09380F0B096E0438F00B0926043857
:1008C8000F0B046E074ED7EF04F0D89004320932AC
:1008D800074ED7EF04F0D89004320932074ED7EF0D
:1008E80004F0D89004320932D7EF04F0030E0764FD
:1008F80091EF04F0075E09380F0B096E0438F00B0E
:10090800092604380F0B046E0538F00B0426053849
:100918000F0B056E074ED7EF04F0D890053204325E
:100928000932074ED7EF04F0D89005320432093265
:10093800074ED7EF04F0D890053204320932D7EFCA
:1009480004F0030E0764C2EF04F0075E09380F0BCA
:10095800096E0438F00B092604380F0B046E0538AD
:10096800F00B042605380F0B056E0638F00B05262C
:1009780006380F0B066E074ED7EF04F0D8900632F4
:10098800053204320932074ED7EF04F0D890063208
:10099800053204320932074ED7EF04F0D8900632F8
:1009A800053204320932086A000E0EAEE4EF04F094
:1009B800091E041E051E061E092A042205220622F7
:1009C8000950082604500022055001220650022230
:1009D8000EBEFBEF04F0D8A00AEF05F00232013298
:1009E80000320832033E0AEF05F014EF05F0D8B0E4
:1009F8000FEF05F0000E081E001E011E021E082A39
:100A08000022012202220A7E0FEF05F0010E0C6E71
:100A180032DC1CEF05F0020E0C6E2DDC1CEF05F02D
:100A2800040E0C6E16EC01F01CEF05F0000E0C6EB7
:020A38001200AA
:100A3A000C6A0E6A0250D8A436EF05F001C002F023
:100A4A0000C001F0006A0E860250D8A436EF05F005
:100A5A0001C002F0016A0E960E880250D8B448EF1F
:100A6A0005F00E50035ED8A4D8A04EEF05F0D8903A
:100A7A0002BE54EF05F0003601360236032E3DEF72
:100A8A0005F04EEF05F0010E0C6E22EC01F058EF66
:100A9A0005F0020E0C6E29EC01F058EF05F0040E79
:080AAA000C6E36EC01F01200A5
:100AB2005BC000F05CC001F0000E5CBEFF0E026E77
:100AC200036E00360090013602360336003600907F
:100AD20001360236033658500024F66E5950012072
:100AE200F76E5A500220F86E0900F5CF5DF009004A
:100AF200F5CF5EF00900F5CF5FF00900F5CF60F0A9
:100B02005B505C1047E054C000F055C001F056C085
:100B120002F057C003F05DC004F05EC005F05FC094
:100B220006F060C007F0A9DC010E5B5E000E5C5AA5
:100B32005BC004F05CC005F0000E5CBEFF0E066EEA
:100B4200076E0436049005360636073604360490DE
:100B520005360636073658500424F66E59500520DD
:100B6200F76E5A500620F86E0900F5CF04F009001E
:100B7200F5CF05F00900F5CF06F00900F5CF07F033
:100B82004ADD00C05DF001C05EF002C05FF003C04C
:100B920060F0B6D75DC000F05EC001F05FC002F049
:060BA20060C003F0120028
:100BA80000C008F00150006E016A026A036A0B6A0D
:100BB8000C6A016A026A036A960E036E0A6A00AE3C
:100BC800ECEF05F0081E001E082AD8B4002A0A8E89
:100BD80000C001F008C000F0086A026A2ADF1200AB
:100BE800086A080E0C6E003408360450085ED8B047
:0E0BF80002D00826D89000360C2EF5D7120039
:0C0C0600339054C061F0C7DC3380120052
:100C12000A6A0350D8A40A800750D8A40A820A504C
:100C2200D8B46CEF06F0030AD8B425EF06F00AB088
:100C320020EF06F006AE6AEF06F068EF06F002AEAD
:100C420068EF06F06AEF06F00250800B0A6E029E11
:100C52000650800B069E0A18D8B436EF06F00A50EA
:100C6200D8B468EF06F06AEF06F00750035CD8B418
:100C720040EF06F0D8A05CEF06F062EF06F00650F7
:100C8200025CD8B44AEF06F0D8A05CEF06F062EF3F
:100C920006F00550015CD8B454EF06F0D8A05CEF22
:100CA20006F062EF06F00450005CD8B46CEF06F078
:100CB200D8B062EF06F00A52D8B46AEF06F068EFD5
:100CC20006F00A52D8B468EF06F06AEF06F0D88050
:0E0CD2001200D8901200D880D88412001200B0
:080CE0000B6A0B86FF0E1200E7
:100CE800540E046E000E056E030E0424E96E000E09
:100CF8000520EA6E7E0EEE5C006E016A000E015A57
:100D080058C0E1FF59C0E2FF00C0E6FF01C0E6FF9E
:100D1800030E0424E16E000E0520E26E7E0EE66EE0
:100D280054C000F055C001F056C002F057C003F09F
:020D38001200A7
:100D3A0054C004F055C005F004C002F005C003F029
:100D4A00044A052A56C000F057C001F0564A572AED
:100D5A0000C0E9FF01C0EAFF02C0E1FF03C0E2FFF1
:100D6A00EECFE6FF02C0E9FF03C0EAFFEE5201E060
:0C0D7A00E3D754C000F055C001F0120097
:060D8600067E47DC1200AE
:100D8C000450000A12E10550000A0FE10650000A57
:100D9C000CE10750000A09E1FF0E006EFF0E016E18
:100DAC007F0E026EFF0E036EA7D0086A096A075009
:100DBC00D8B471EF07F00350D8B475EF07F00250B8
:100DCC0006180A6E028E068E0E6A02C008F001C06A
:100DDC000CF000C00DF004500D5E0550D8A0053C81
:100DEC000C5E0650D8A0063C085E086A0C6A0D6AB8
:100DFC00D8A008EF07F0D890023201320032083246
:100E0C00010E0E6E0750035ED8A015EF07F07E0E94
:100E1C000E240326D8B07AEF07F01BEF07F07E0EF6
:100E2C000E240326D8A07FEF07F0180E0B6E0D369C
:100E3C000C3608360036013602360E360450005E8B
:100E4C000550D8A0053C015E0650D8A0063C025EB9
:100E5C0006340E120EA036EF07F00D8041EF07F0AE
:100E6C00045000260550D8B0053C01260650D8B0D9
:100E7C00062802260D900B2E1DEF07F067EF07F0EA
:100E8C00D8900036013602360E360450005E0550FE
:100E9C00D8A0053C015E0650D8A0063C025E063484
:100EAC000E10010B0D26D8B00C2AD8B4082AD8A4E1
:100EBC0067EF07F008320C320D32032AD8B47AEF00
:100ECC0007F00AAE089E0850026E0C50016E0D50D1
:100EDC00006E82EF07F0010EFDDE82EF07F0020ECE
:100EEC0022EC01F082EF07F0040E16EC01F082EF19
:0A0EFC0007F0080E29EC01F01200C7
:100F06000050086E0150006E016A026A036A0B6A9D
:100F16000C6A960E036E0A6A00C001F008C000F063
:080F2600086A026A87DD12006F
:100F2E000900F5CFE6FF0006FBE10106F9E112002C
:100F3E00959695949598959A959C959E839683945F
:100F4E00839E839C839A839830EC02F030EC02F0FF
:100F5E0030EC02F0838A838883863BEC02F0839622
:100F6E0030EC02F083863BEC02F0839630EC02F01C
:100F7E0083863BEC02F0839630EC02F083988386F6
:100F8E003BEC02F0839630EC02F083863BEC02F0F1
:100F9E008396839A838E83863BEC02F0839630ECA5
:100FAE0002F0839E838883863BEC02F083968398BF
:100FBE0083863BEC02F0839630EC02F083863BECAA
:100FCE0002F08396838883863BEC02F0839630ECA6
:100FDE0002F0839883863BEC02F08396838E838C9B
:100FEE00838A838883863BEC02F0839630EC02F092
:040FFE00338012002A
:1010020000C008F00B6A0C6A9E0E036E0A6A026A3E
:0E101200016A006A020E0C6E3FEC01F0120043
:1010200046C004F047C005F048C006F049C007F0CC
:10103000006A016A026A036AECDD000ED8B0010E94
:10104000006E005205E0006A016A026A036A68D015
:1010500046C054F047C055F048C056F049C057F05C
:101060004A0E586E000E596E3FDE000E046E000EE2
:10107000056E000E066E800E076E3EEC02F0000E4E
:10108000046E000E056E000E066E7F0E076E7BDE90
:1010900000C046F001C047F002C048F003C049F06C
:1010A000010E4A5E000E4B5A00C054F001C055F0CC
:1010B00002C056F003C057F0100E586E160E596E4F
:1010C000000E5A6E080E5B6E000E5C6EF2DC00C005
:1010D0004CF001C04DF002C04EF003C04FF04CC0C8
:1010E00046F04DC047F04EC048F04FC049F04AC0EE
:1010F00000F04BC001F058DD180E046E720E056E44
:10110000310E066E7E0E076E3EEC02F04CC004F00F
:101110004DC005F04EC006F04FC007F00CEC03F0D8
:021120001200BB
:10112200486A48504624E96E000E4720EA6EEE52A5
:101132000BE048504624E96E000E4720EA6EEECFDF
:0A11420054F060DD482AEDD71200DA
:10114C00526A536A46C04EF047C04FF048C050F048
:10115C0049C051F05150FF0A08E15050FF0A05E117
:10116C004F50FF0A02E14E50FF0A0CE14AC054F006
:10117C004BC055F01D0E566E000E576ED8DD030E8B
:10118C00006EE9D1010E4C6E50AE0ED0800E501890
:10119C00006E00C050F04C2A4AC0E1FF4BC0E2FF89
:1011AC002D0EE66E4A4A4B2A000E006E511808E1CD
:1011BC000050501805E100504F1802E14E50000A43
:1011CC000BE14AC054F04BC055F0290E566E000E80
:1011DC00576EADDD006ABFD15150FF0A08E1505087
:1011EC00000A05E14F50000A02E14E50000A0CE1E2
:1011FC004AC054F04BC055F0250E566E000E576E7B
:10120C0096DD4CC000F0A7D1000E046E000E056EEA
:10121C00000E066E7F0E076E4EC000F04FC001F040
:10122C0050C002F051C003F0EEDC010ED8B0000E3D
:10123C00006E00521CE04EC000F04FC001F050C0D8
:10124C0002F051C003F0000E046E000E056E200E6D
:10125C00066E820E076E3EEC02F000C04EF001C02E
:10126C004FF002C050F003C051F05306CDD7000E22
:10127C00046E000E056E200E066E820E076E4EC0BA
:10128C0000F04FC001F050C002F051C003F0BBDCC5
:10129C00000ED8B0010E006E00521CE04EC000F0E3
:1012AC004FC001F050C002F051C003F0CD0E046EDF
:1012BC00CC0E056E4C0E066E7B0E076E3EEC02F0ED
:1012CC0000C04EF001C04FF002C050F003C051F00E
:1012DC00532ACDD7FF0E4E14086EFF0E4F14096E15
:1012EC007F0E50140A6E000E51140B6E08C004F0E1
:1012FC0009C005F00AC006F00BC007F004360490D4
:10130C00053606360736000E4E14006E000E4F14CE
:10131C00016E000E5014026EFF0E5114036E00C0CD
:10132C004EF001C04FF002C050F003C051F0045019
:10133C004E10006E05504F10016E06505010026E8C
:10134C0007505110036E00C04EF001C04FF002C0A8
:10135C0050F003C051F07F0E515C006E00C04DF098
:10136C00010E516E00C004F04EC000F04FC001F0F1
:10137C0050C002F051C003F0045007E0003600905A
:10138C00013602360336FF0FF8D700C04EF001C00D
:10139C004FF002C050F003C051F04AC0E1FF4BC007
:1013AC00E2FF5150300FE66E4A4A4B2A800E53181A
:1013BC00006E800E010A005C08E3800E060A006EC7
:1013CC00800E5318005C01E30AD04AC0E1FF4BC009
:1013DC00E2FF2E0EE66E4A4A4B2A010E526E060EA4
:1013EC004D6E4D50000A54E0516A4EC000F04FC093
:1013FC0001F050C002F051C003F0003600900136ED
:10140C0002360336003600900136023603364E5053
:10141C0000264F500122505002225150032200C08E
:10142C004EF001C04FF002C050F003C051F04EC05E
:10143C0000F04FC001F050C002F051C003F0003674
:10144C00009001360236033600C04EF001C04FF05A
:10145C0002C050F003C051F04AC0E1FF4BC0E2FFA4
:10146C005150300FE66E4A4A4B2A5250000A0EE198
:10147C0053065350000A0AE14AC0E1FF4BC0E2FF99
:10148C002E0EE66E4A4A4B2A010E526E4D06A9D715
:10149C00FF0E4A24E96EFF0E4B20EA6EEE50300A26
:1014AC0005E1010E4A5E000E4B5AF2D7FF0E4A249C
:1014BC00E96EFF0E4B20EA6EEE502E0A04E1010E8F
:1014CC004A5E000E4B5A5350000A3FE04AC0E1FFFF
:1014DC004BC0E2FF650EE66E4A4A4B2A800E53184B
:1014EC00006E800E000A005C0BE24AC0E1FF4BC0AC
:1014FC00E2FF2D0EE66E4A4A4B2A53500008536EFB
:10150C0053C04DF0535009080FE20A0E046E4DC043
:10151C0000F0F4EC05F04AC0E1FF4BC0E2FF0050D4
:10152C00300FE66E4A4A4B2A0A0E046E4DC000F08C
:10153C00F4EC05F008C000F04AC0E1FF4BC0E2FF3C
:10154C000050300FE66E4A4A4B2A4AC0E1FF4BC0AE
:08155C00E2FFE66A006A1200DA
:101564000FD0800E466E19D0C00E466E16D0940E63
:10157400466E13D0D40E466E10D0800E466E0DD03B
:101584004650010AEEE04650020AEEE04650030AD5
:10159400EEE04650040AEEE0F0D74704006E4650F1
:1015A400002600C046F000C061F0CEEC02F033909B
:1015B4004A6A4A504824E96E000E4920EA6EEE5207
:1015C4000CE04A504824E96E000E4920EA6EEECF42
:0E15D40054F003EC06F04A2AECD733801200E4
:1015E20025EC0BF092829E9C9D8CD09EF294F28A06
:1015F200F28CF28EC00EC16E490EC26E9FDC830E5B
:0E160200D56E0B0ED76EDC0ED66EFFD7FFD75F
:10164A0010EE1DF0160E006E010E016E340EF66ECF
:0E165A00160EF76E000EF86E97EC07F01200F9
:10161000FFE65B5DC4FF7F7E80EFFF7D90E1297D6B
:10162000EC82F67C82AD2B7C0E3CC37B87D1137A97
:041630004178D377B3
:041634004E614E00B5
:04163800202043002B
:04163C00494E4600CD
:02164000300078
:0416420000000000A4
:0416460000000000A0
:020000040030CA
:0D000100220F0EFF0181FF0FC00FE00F4026
:00000001FF
