:04000000D6EF00F047
:1000080000C018F00BC017F00CC016F00DC015F0AA
:10001800F2A8B7D0F2A2B5D0F2921950000A2BE19B
:10002800040E826E030E0B6E080E0C6E770E0D6EAC
:100038000D2EFED70C2EFCD70B2EFAD7080E826E8B
:10004800030E0B6E080E0C6E770E0D6E0D2EFED77E
:100058000C2EFCD70B2EFAD7030E826E030E0B6EF6
:10006800080E0C6E770E0D6E0D2EFED70C2EFCD7DB
:100078000B2EFAD7826A1950010A7EE1010E826EB0
:10008800030E0B6E080E0C6E770E0D6E0D2EFED73E
:100098000C2EFCD70B2EFAD7080E826E030E0B6EB1
:1000A800080E0C6E770E0D6E0D2EFED70C2EFCD79B
:1000B8000B2EFAD7040E826E030E0B6E080E0C6E12
:1000C800770E0D6E0D2EFED70C2EFCD70B2EFAD701
:1000D800020E826E030E0B6E080E0C6E770E0D6EFE
:1000E8000D2EFED70C2EFCD70B2EFAD7010E826EE2
:1000F800030E0B6E080E0C6E770E0D6E0D2EFED7CE
:100108000C2EFCD70B2EFAD7080E826E030E0B6E40
:10011800080E0C6E770E0D6E0D2EFED70C2EFCD72A
:100128000B2EFAD7040E826E030E0B6E080E0C6EA1
:10013800770E0D6E0D2EFED70C2EFCD70B2EFAD790
:10014800020E826E030E0B6E080E0C6E770E0D6E8D
:100158000D2EFED70C2EFCD70B2EFAD7030E826E6F
:10016800030E0B6E080E0C6E770E0D6E0D2EFED75D
:100178000C2EFCD70B2EFAD71952010ED8A4000E5C
:10018800196E18C000F017C00BF016C00CF015C09F
:040198000DF0110055
:10019C000900F5CFE6FF0006FBE10106F9E11200CC
:1001AC00196A010E936E946A816A826AF19CF292CA
:1001BC00F288F29CF28EF19E010E826E030E0B6E93
:1001CC00080E0C6E770E0D6E0D2EFED70C2EFCD776
:1001DC000B2EFAD7060E826E030E0B6E080E0C6EEB
:1001EC00770E0D6E0D2EFED70C2EFCD70B2EFAD7DC
:0601FC00826AFFD7FFD765
:020000040030CA
:0D000100220F0EFF0181FF0FC00FE00F4026
:00000001FF
