:1000000016EF00F00000000000EF00F0000000001C
:0A0010000000000000000000F3D71C
:10001C000900F5CFE6FF0006FBE10106F9E112004D
:10002C00156A010E936E946A816A826A010E826E61
:10003C00030E0B6E080E0C6E770E0D6E0D2EFED78A
:10004C000C2EFCD70B2EFAD7060E826E030E0B6EFF
:10005C00080E0C6E770E0D6E0D2EFED70C2EFCD7E7
:10006C000B2EFAD7826A030E0B6E080E0C6E770EEF
:10007C000D6E0D2EFED70C2EFCD70B2EFAD781B0A1
:10008C0022D01550000A1FE1010E156E040E826E6F
:10009C00030E0B6E080E0C6E770E0D6E0D2EFED72A
:1000AC000C2EFCD70B2EFAD70C0E826E030E0B6E99
:1000BC00080E0C6E770E0D6E0D2EFED70C2EFCD787
:1000CC000B2EFAD7826A81B066D01550010A63E113
:1000DC00156A080E826E030E0B6E080E0C6E770EF0
:1000EC000D6E0D2EFED70C2EFCD70B2EFAD7010E53
:1000FC00826E030E0B6E080E0C6E770E0D6E0D2EAF
:10010C00FED70C2EFCD70B2EFAD7020E826E030EE6
:10011C000B6E080E0C6E770E0D6E0D2EFED70C2E80
:10012C00FCD70B2EFAD7040E826E030E0B6E080E44
:10013C000C6E770E0D6E0D2EFED70C2EFCD70B2EE3
:10014C00FAD7080E826E030E0B6E080E0C6E770E2D
:10015C000D6E0D2EFED70C2EFCD70B2EFAD7010EE2
:10016C00826E030E0B6E080E0C6E770E0D6E0D2E3E
:10017C00FED70C2EFCD70B2EFAD7060E826E030E72
:10018C000B6E080E0C6E770E0D6E0D2EFED70C2E10
:0A019C00FCD70B2EFAD767D7FFD768
:020000040030CA
:0D000100220F0EFF0181FF0FC00FE00F4026
:00000001FF
