:0400000053EF00F0CA
:1000080000C015F0F2A20FD0800E030A006E800E19
:100018001718005C02E11650840804E3640E1626E3
:10002800000E1722F292F0A00ED0800E1718006E64
:10003800800E005C02E1C80E165C04E3640E165ED6
:0C004800000E175AF09015C000F01100D7
:10005400FF0E1F6EFF0E206EFF0E216EFF0E226E2E
:10006400840E1B6E000E1C6E230E1D6E000E1E6E83
:10007400949A94969488C66A400EC76EC68A1200F3
:1000840023C0C9FFC7B002D00000FCD7C9CF00F01D
:02009400120058
:100096000900F5CFE6FF0006FBE10106F9E11200D3
:1000A600640E166E176A186A196A1A6A010E936E3A
:1000B600946AF292F288F18CF19AF090F086F19EB1
:1000C600F28EC5DF1950FF0802E11850FE081AE348
:1000D600184A192A19C000F0016A0F0E0014006EA2
:1000E600300E001200C01AF0829000C023F0C7DF65
:1000F60018C023F0C4DF8280420E0D6E0D2EFED78F
:100106000000E0D7000E195C02E1010E185C1CE34A
:10011600010E185E000E195A19C000F0016A0F0E82
:100126000014006E300E001200C01AF0829000C05B
:1001360023F0A5DF18C023F0A2DF8280420E0D6EE9
:0C0146000D2EFED70000DED7BDD7FFD77E
:020000040030CA
:0D000100220F0EFF0181FF0FC00FE00F4026
:00000001FF
