:0400000089EF01F093
:1000080000C017F001C016F00CC015F09EAC27D048
:10001800C3CF1CF0000E1D6EC4CF01F0006A005063
:100028001C2601501D22F40E1C6E010E1D6E660E5C
:10003800186E660E196E1C0E1A6E800E1B6EF40E6C
:10004800396E010E3A6E230E3B6E000E3C6E85D85B
:10005800850ED56E0B0ED76EDC0ED66E9E9CF2A466
:1000680003D0C284D59EF29417C000F016C001F0E8
:0600780015C00CF01100A0
:06007E000000000012006A
:100084000F0E0C6E470E0D6E0D2EFED70C2EFCD7E8
:0600940000000000120054
:0A009A00210E0D6E0D2EFED7120090
:1000A40038BE02D0839E01D0838E38BC02D0839C9C
:1000B40001D0838C38BA02D0839A01D0838A38B8AD
:1000C40002D0839801D0838831B002D0838401D0D8
:1000D40083948386D2DF839638B602D0839E01D080
:1000E400838E38B402D0839C01D0838C38B202D082
:1000F400839A01D0838A38B002D0839801D0838850
:1001040031B002D0838401D083948386B6DF839692
:0C01140031A002D0B5DF01D0BEDF120028
:10012000086A096A100E0C6E01340836093604504C
:10013000085E0550D8A0053C095ED8B007D0045031
:1001400008260550D8B0053C0926D890003601365F
:060150000C2EEAD712009C
:0C015600319037C038F0A3DF3180120078
:100162003D6A050E3D5C0AE23D503B24E16E000E05
:100172003C20E26E200EE66E3D2AF3D73D503B2432
:10018200E16E000E3C20E26EE66A3D063D503B24E5
:100192003E6E000E3C203F6E0A0E046E000E056E8F
:1001A20039C000F03AC001F0BADF08C000F009C05F
:1001B20001F0300E00263EC0E1FF3FC0E2FF00C06A
:1001C200E6FF0A0E046E000E056E39C000F03AC05A
:1001D20001F0A5DF00C039F001C03AF0000E0118AD
:1001E20002E1000E001801E102D03D06CFD7120055
:1001F2000900F5CFE6FF0006FBE10106F9E1120076
:100202000FD0800E326E19D0C00E326E16D0940E00
:10021200326E13D0D40E326E10D0800E326E0DD0EC
:100222003250010AEEE03250020AEEE03250030A86
:10023200EEE03250040AEEE0F0D73304006E3250A2
:10024200002600C032F000C038F02BDF3190366A51
:1002520036503424E96E000E3520EA6EEE520BE081
:1002620036503424E96E000E3520EA6EEECF37F0B8
:0A02720071DF362AEDD7318012004B
:10027C00959695949598959A959C959E839683942E
:10028C00839E839C839A8398F7DEF6DEF5DE838A61
:10029C0083888386EEDE8396EFDE8386EADE8396A2
:1002AC00EBDE8386E6DE8396E7DE83988386E1DEEB
:1002BC008396E2DE8386DDDE8396839A838E838645
:1002CC00D8DE8396D9DE839E83888386D2DE83969E
:1002DC0083988386CEDE8396CFDE8386CADE8396B2
:1002EC0083888386C6DE8396C7DE83988386C1DEC9
:1002FC008396838E838C838A83888386BADE8396E7
:06030C00BBDE318012008F
:10031200186A196A1A6A1B6A1C6A1D6A480E1E6EDE
:100322006F0E1F6E6C0E206E610E216E226AFF0E22
:10033200966E9E9C9D8CD09EF294F28AF28CC00E98
:10034200C16E710EC26E99DF0B0ED76EDC0ED66EC9
:10035200010E326E010E336E1E0E346E000E356EBD
:060362004FDFFFD7FFD7BB
:020000040030CA
:0D000100220F0EFF0181FF0FC00FE00F4026
:00000001FF
