:040000007CEF01F0A0
:1000080000C018F001C017F00CC016F00DC015F0B4
:10001800010E2A6E010E2B6E1A0E2C6E000E2D6E1E
:100028002AD919C02AF0250E2B6E000E2C6E82D804
:10003800250E2A6E000E2B6E09D9630E195C02E29A
:10004800192A01D0196A838081B801D0FDD783901D
:1000580081CF28F0F29018C000F017C001F016C048
:080068000CF015C00DF01100B1
:100070000F0E0C6E470E0D6E0D2EFED70C2EFCD7FC
:0600800000000000120068
:0600860000000000120062
:0A008C00210E0D6E0D2EFED712009E
:1000960031BE02D0839E01D0838E31BC02D0839CB8
:1000A60001D0838C31BA02D0839A01D0838A31B8C9
:1000B60002D0839801D0838829B002D0838401D0EE
:1000C60083948386DDDF839631B602D0839E01D08A
:1000D600838E31B402D0839C01D0838C31B202D09E
:1000E600839A01D0838A31B002D0839801D0838865
:1000F60029B002D0838401D083948386C1DF83969E
:0C01060029A002D0B2DF01D0BEDF120041
:0C011200299030C031F0BEDF29801200BF
:10011E00086A080E0C6E003408360450085ED8B01B
:0E012E0002D00826D89000360C2EF5D712000D
:10013C002D6A030E2D5C0AE22D502B24E16E000E6D
:10014C002C20E26E200EE66E2D2AF3D72D502B2498
:10015C00E16E000E2C20E26EE66A2D062D502B244B
:10016C002E6E000E2C202F6E0A0E046E2AC000F08C
:10017C00D0DF08C000F0300E00262EC0E1FF2FC0EB
:10018C00E2FF00C0E6FF0A0E046E2AC000F0C1DFD9
:10019C0000C02AF00050000A01E102D02D06DED783
:0201AC0012003F
:1001AE00959695949598959A959C959E83968394FD
:1001BE00839E839C839A839854DF53DF52DF838A16
:1001CE008388838659DF83964CDF838655DF83963B
:1001DE0048DF838651DF839644DF839883864CDF26
:1001EE0083963FDF838648DF8396839A838E83864A
:1001FE0043DF839636DF839E838883863DDF839637
:10020E008398838639DF83962CDF838635DF83964A
:10021E008388838631DF839624DF839883862CDF61
:10022E008396838E838C838A8388838625DF839649
:06023E0018DF2980120008
:100244000900F5CFE6FF0006FBE10106F9E1120023
:100254002C6A2C502A24E96E000E2B20EA6EEE52F2
:100264000BE02C502A24E96E000E2B20EA6EEECF10
:0A02740030F04DDF2C2AEDD7120008
:10027E000FD0800E2A6E19D0C00E2A6E16D0940E94
:10028E002A6E13D0D40E2A6E10D0800E2A6E0DD088
:10029E002A50010AEEE02A50020AEEE02A50030A22
:1002AE00EEE02A50040AEEE0F0D72B04006E2A503E
:1002BE00002600C02AF000C031F0E6DE29902E6A3A
:1002CE002E502C24E96E000E2D20EA6EEE520BE01D
:1002DE002E502C24E96E000E2D20EA6EEECF30F05B
:0A02EE0011DF2E2AEDD7298012003F
:1002F800196A590E1A6E6F0E1B6E750E1C6E720EF1
:100308001D6E200E1E6E540E1F6E750E206E720E20
:10031800216E6E0E226E3A0E236E246AF00E936ED4
:10032800816A9590F19E81CF28F0F290F286F28E44
:0C0338003ADF81CF28F0F280FFD7FFD71A
:020000040030CA
:0D000100220F0EFF0181FF0FC00FE00F4026
:00000001FF
