:1000000037EF00F00000000000EF00F000000000FB
:0A0010000000000000000000F3D71C
:10001C001FC0C9FFC7B002D00000FCD7C9CF00F089
:02002C001200C0
:10002E000900F5CFE6FF0006FBE10106F9E112003B
:10003E00FF0E156EFF0E166EFF0E176EFF0E186E6C
:10004E001C0E196E000E1A6E1F0E1B6E000E1C6E0D
:10005E00949A94969488C66A400EC76EC68A120009
:10006E001D6A1E6A946AE4DF1E500F0802E11D50DD
:10007E00FF0817E31EC000F0016A0F0E0014006E99
:10008E00300E00101F6E8290C2DF1DC01FF0BFDF4A
:10009E008280420E0D6E0D2EFED700001D4A1E2AC6
:1000AE00E3D7000E1E5C02E1010E1D5C19E3010E8A
:1000BE001D5E000E1E5A1EC000F0016A0F0E0014C7
:1000CE00006E300E00101F6E8290A1DF1DC01FF05B
:1000DE009EDF8280420E0D6E0D2EFED70000E1D700
:0400EE00C3D7FFD79E
:020000040030CA
:0D000100220F0EFF0181FF0FC00FE00F4026
:00000001FF
