:04000000EEEF09F026
:1000080000C018F001C017F00CC016F00DC015F0B4
:10001800F0A20DD0000E515C02E1070E505C03E225
:10002800504A512A02D0506A516AF0929E8C9EAC76
:1000380012D2010E0001856F4CDAC3CF4AF0000ED0
:100048004B6EC4CF01F0006A4A5000264B50012283
:1000580000C04AF001C04BF078EC05F0520E046E77
:10006800270E056E200E066E770E076EDFDA00C0CB
:100078004CF001C04DF002C04EF003C04FF09A0E94
:10008800046E990E056E310E066E830E076ECEDA7B
:10009800000E046E000E056E280E066E820E076EA8
:1000A8008CEC05F000C04CF001C04DF002C04EF0E1
:1000B80003C04FF0000E511802E1000E50181EE167
:1000C8004CC073F04DC074F04EC075F04FC076F060
:1000D800650E776E000E786EDCEC07F0010E736E1D
:1000E800010E746E650E756E000E766E9DEC07F04F
:1000F8005E0E736E000E746E10EC05F0000E511853
:1001080002E1010E501837E14CC000F04DC001F07B
:100118004EC002F04FC003F0E10E046E7A0E056E79
:10012800140E066E7C0E076E81DA00C04CF001C01A
:100138004DF002C04EF003C04FF000C073F001C094
:1001480074F002C075F003C076F0650E776E000E8D
:10015800786EDCEC07F0010E736E010E746E650E9E
:10016800756E000E766E9DEC07F0520E736E000EE3
:10017800746E10EC05F0000E511802E1020E5018D2
:1001880037E14CC000F04DC001F04EC002F04FC046
:1001980003F0960E046EB10E056E210E066E780EF3
:1001A800076E44DA00C04CF001C04DF002C04EF0BA
:1001B80003C04FF000C073F001C074F002C075F0C6
:1001C80003C076F0650E776E000E786EDCEC07F0F3
:1001D800010E736E010E746E650E756E000E766EEE
:1001E8009DEC07F0580E736E000E746E10EC05F05F
:1001F800000E511802E1030E501836E14CC000F011
:100208004DC001F04EC002F04FC003F0000E046E66
:10021800000E056E200E066E820E076E07DA00C00D
:100228004CF001C04DF002C04EF003C04FF000C0CA
:1002380073F001C074F002C075F003C076F0650E6B
:10024800776E000E786EDCEC07F0010E736E010E0F
:10025800746E650E756E000E766E9DEC07F0290EB5
:10026800736E000E746ED8DB000E511802E1040E96
:10027800501836E14CC000F04DC001F04EC002F0FD
:100288004FC003F0000E046E000E056E700E066E71
:10029800810E076ECBD900C04CF001C04DF002C0F2
:1002A8004EF003C04FF000C073F001C074F002C0FC
:1002B80075F003C076F0650E776E000E786EDCEC94
:1002C80007F0010E736E010E746E650E756E000EEA
:1002D800766E9DEC07F0300E736E000E746E9CDB2C
:1002E800000E511802E1050E501836E14CC000F01E
:1002F8004DC001F04EC002F04FC003F0000E046E76
:10030800000E056E7A0E066E880E076E8FD900C035
:100318004CF001C04DF002C04EF003C04FF000C0D9
:1003280073F001C074F002C075F003C076F0650E7A
:10033800776E000E786EDCEC07F0010E736E010E1E
:10034800746E650E756E000E766E9DEC07F0190ED4
:10035800736E000E746E60DB000E511802E1060E1B
:10036800501836E14CC000F04DC001F04EC002F00C
:100378004FC003F0E70E046E1D0E056E270E066EC5
:10038800780E076E53D900C04CF001C04DF002C082
:100398004EF003C04FF000C073F001C074F002C00B
:1003A80075F003C076F0650E776E000E786EDCECA3
:1003B80007F0010E736E010E746E650E756E000EF9
:1003C800766E9DEC07F0200E736E000E746E24DBC3
:1003D800000E511802E1070E501836E14CC000F02B
:1003E8004DC001F04EC002F04FC003F0F20E046E93
:1003F800B00E056E500E066E7B0E076E17D900C044
:100408004CF001C04DF002C04EF003C04FF000C0E8
:1004180073F001C074F002C075F003C076F0650E89
:10042800776E000E786EDCEC07F0010E736E010E2D
:10043800746E650E756E000E766E9DEC07F03D0EBF
:10044800736E000E746EE8DA840ED56E0B0ED76EDE
:10045800DC0ED66E9E9CF2A403D0C284D59EF29484
:1004680018C000F017C001F016C00CF015C00DF050
:02047800110071
:10047A000F0E0C6E470E0D6E0D2EFED70C2EFCD7EE
:06048A000000000012005A
:0604900000000000120054
:0A049600210E0D6E0D2EFED7120090
:0804A0000AAE029E000E1200DC
:1004A8000B840BAE5FEF02F0010E036E026A016A65
:0A04B800006A0A360232FF0E12003D
:1004C2000B820BAE6BEF02F00368026801680068F2
:0804D2000A360232FF0E12008F
:1004DA00000185BF02D0839E01D0838E85BD02D0E4
:1004EA00839C01D0838C85BB02D0839A01D0838AF6
:1004FA0085B902D0839801D0838864B002D08384FE
:10050A0001D083948386BFDF839685B702D0839E0A
:10051A0001D0838E85B502D0839C01D0838C85B3AC
:10052A0002D0839A01D0838A85B102D0839801D000
:10053A00838864B002D0838401D083948386A3DF46
:0E054A00839664A002D094DF01D0A0DF1200DF
:0E055800026A016A006A086A036A000E120055
:100566000A6A0350D8A40A800750D8A40A820A50FF
:10057600D8B416EF03F0030AD8B4CFEF02F00AB0EE
:10058600CAEF02F006AE14EF03F012EF03F002AE6C
:1005960012EF03F014EF03F00250800B0A6E029E76
:1005A6000650800B069E0A18D8B4E0EF02F00A50F7
:1005B600D8B412EF03F014EF03F00750035CD8B47D
:1005C600EAEF02F0D8A006EF03F00CEF03F00650B6
:1005D600025CD8B4F4EF02F0D8A006EF03F00CEFFB
:1005E60003F00550015CD8B4FEEF02F0D8A006EF88
:1005F60003F00CEF03F00450005CD8B416EF03F0E0
:10060600D8B00CEF03F00A52D8B414EF03F012EF8F
:1006160003F00A52D8B412EF03F014EF03F0D880B7
:0E0626001200D8901200D880D8841200120062
:10063400086A096A000E076203649FEF03F0025020
:1006440006180A6E075003267E0ED8A030EF03F07A
:10065400035ED8B0A3EF03F034EF03F0035ED8A039
:10066400A7EF03F0028E068E02C00EF001C00BF05D
:1006740000C00DF000500402F4CF0CF0015005024C
:10068400F4CF00F0F3CF08F00402F3500C26F4503A
:100694000822000E00220D500502F3500C26F450DF
:1006A4000822000E002202500402F3500826F450DF
:1006B400002202500502016A000E0122F3500026B6
:1006C400F45001220D500602F3500826F450002283
:1006D400026A000E012202220B500602F350002689
:1006E400F4500122000E02220E500602F35001269D
:1006F400F450022202BE87EF03F0083600360136BA
:1007040002360306D8B4A7EF03F09AEF03F0D880BB
:10071400800E08640030000E002201220222D8A0BC
:100724009AEF03F0023201320032034AA3EF03F0DE
:100734000AAE029E000EA9EF03F0010E0BDFA9EF33
:1007440003F0020EBCDEA9EF03F0040EABDE1200D0
:10075400086A080E0C6E003408360450085ED8B0DF
:0E07640002D00826D89000360C2EF5D71200D1
:0C077200649081C085F0B0DE648012004D
:10077E000C6A0E6A0250D8A4D8EF03F001C002F042
:10078E0000C001F0006A0E860250D8A4D8EF03F024
:10079E0001C002F0016A0E960E880250D8B4EAEF3C
:1007AE0003F00E50035ED8A4D8A0EFEF03F0D8905C
:1007BE0002BEF4EF03F0003601360236032EDFEFF1
:1007CE0003F0EFEF03F0010E0C6EBFDEF7EF03F058
:1007DE00020E0C6E62DEF7EF03F0040E0C6E59DEA5
:0207EE001200F7
:1007F00081C004F082C005F004C002F005C003F01F
:10080000044A052A83C000F084C001F00001834B34
:10081000842B00C0E9FF01C0EAFF02C0E1FF03C072
:10082000E2FFEECFE6FF02C0E9FF03C0EAFFEE52AF
:0E08300001E0E2D781C000F082C001F01200AA
:10083E000CB061EF04F00CA207EF05F00E6A000E8B
:10084E00026478EF04F0F00E0214D8A443EF04F023
:10085E00023A01380F0B02260138F00B016E0038F8
:10086E000F0B01260038F00B006E08380F0B002618
:10087E000838F00B086E0E84D89002BE5CEF04F0C0
:10088E0008360036013602360E2A02BE5CEF04F040
:10089E0008360036013602360E2A02BE5CEF04F030
:1008AE0008360036013602360E2A0E500364FDEF6E
:1008BE0004F0035E0BBC08AE02EF05F0D880800E8C
:1008CE0008640030000E002201220222D8A002EF9E
:1008DE0005F0023201320032034A07EF05F002EF53
:1008EE0005F001C002F000C001F008C000F0086A77
:1008FE00000E0E860264AFEF04F0F00E0214D8A4C0
:10090E0097EF04F0023A01380F0B02260138F00B74
:10091E00016E00380F0B01260038F00B006E0E84AE
:10092E00D89002BE5CEF04F00036013602360E2A75
:10093E0002BE5CEF04F00036013602360E2A02BE0D
:10094E005CEF04F00036013602360E2A5CEF04F03E
:10095E0001C002F000C001F0006A000E0E960E8873
:10096E000264DCEF04F0F00E0214D8A4C7EF04F01A
:10097E00023A01380F0B02260138F00B016E0E847D
:10098E00D89002BE5CEF04F0013602360E2A02BE8B
:10099E005CEF04F0013602360E2A02BE5CEF04F064
:1009AE00013602360E2A5CEF04F001C002F0016A35
:1009BE00000E0E8602640CEF05F0F00E0214D8A4A1
:1009CE00EBEF04F0023A0E84D89002BE5CEF04F016
:1009DE0002360E2A02BE5CEF04F002360E2A02BE6A
:1009EE005CEF04F002360E2A5CEF04F0010E0C6E82
:1009FE0054DD0FEF05F0020E0C6E4BDD0FEF05F020
:100A0E00040E0C6E57DD0FEF05F0080E0C6E9DDD1B
:020A1E001200C4
:100A2000756A75507324E96E000E7420EA6EEE52FA
:100A30000BE075507324E96E000E7420EA6EEECF61
:0A0A400081F097DE752AEDD7120051
:100A4A00959695949598959A959C959E8396839458
:100A5A00839E839C839A83980BDD0ADD09DD838A52
:100A6A008388838610DD839603DD83860CDD839677
:100A7A00FFDC838608DD8396FBDC8398838603DDAF
:100A8A008396F6DC8386FFDC8396839A838E83863D
:100A9A00FADC8396EDDC839E83888386F4DC839676
:100AAA0083988386F0DC8396E3DC8386ECDC83968A
:100ABA0083888386E8DC8396DBDC83988386E3DCA1
:100ACA008396838E838C838A83888386DCDC8396F1
:060ADA00CFDC6480120075
:100AE0000900F5CFE6FF0006FBE10106F9E112007F
:100AF0000050086E0150006E016A026A036A0B6AB8
:100B00000C6A960E036E0A6A00C001F008C000F07D
:080B1000086A026A34DE1200DB
:100B1800025006180E6E086A096A0B6A03500764C9
:100B28007FEF06F006500A6E068E028E03500B6E9B
:100B38000750036E000E0B64CFEF05F00B50075EF5
:100B4800D8B470EF06F0070E07643EEF06F0075EB4
:100B580000C008F001C000F002C001F0026A074EB0
:100B680070EF06F0076413EF06F0075E00C008F0A8
:100B780001C000F0016A074E70EF06F00764F1EF5C
:100B880005F0075E00C008F0006A074E70EF06F037
:100B98000764D8EF05F00AC002F005C001F004C0F0
:100BA80000F0086A9AEF07F0030E0764E3EF05F018
:100BB800075E08380F0B086E074E70EF06F0D890E6
:100BC8000832074E70EF06F0D8900832074E70EFE3
:100BD80006F0D890083270EF06F0030E076402EFB3
:100BE80006F0075E08380F0B086E0038F00B082671
:100BF80000380F0B006E074E70EF06F0D8900032E9
:100C08000832074E70EF06F0D89000320832074ECF
:100C180070EF06F0D8900032083270EF06F0030E3D
:100C280007642AEF06F0075E08380F0B086E0038D5
:100C3800F00B082600380F0B006E0138F00B002669
:100C480001380F0B016E074E70EF06F0D890013295
:100C580000320832074E70EF06F0D89001320032A9
:100C68000832074E70EF06F0D89001320032083291
:100C780070EF06F0030E07645BEF06F0075E0838B6
:100C88000F0B086E0038F00B082600380F0B006EAB
:100C98000138F00B002601380F0B016E0238F00BFB
:100CA800012602380F0B026E074E70EF06F0D8903F
:100CB8000232013200320832074E70EF06F0D89047
:100CC8000232013200320832074E70EF06F0D89037
:100CD8000232013200320832096A000E0EAE64EFA9
:100CE80007F0081E001E011E021E082A002201220B
:100CF800022264EF07F00750D8A485EF06F09AEFB8
:100D080007F0096A02C00AF0028E068E0750035CDB
:100D1800076ED8B457EF07F0070E076425EF07F002
:100D2800075E0450096E0550046E0650056E066A8B
:100D3800074E57EF07F0070E0764FAEF06F0075E55
:100D48000450096E0550046E056A074E57EF07F008
:100D5800070E0764D8EF06F0075E0450096E046AB0
:100D6800074E57EF07F0070E0764BFEF06F00AC0FB
:100D780002F09AEF07F0030E0764CAEF06F0075E69
:100D880009380F0B096E074E57EF07F0D890093254
:100D9800074E57EF07F0D8900932074E57EF07F084
:100DA800D890093257EF07F0030E0764E9EF06F011
:100DB800075E09380F0B096E0438F00B0926043852
:100DC8000F0B046E074E57EF07F0D8900432093224
:100DD800074E57EF07F0D89004320932074E57EF05
:100DE80007F0D8900432093257EF07F0030E076472
:100DF80011EF07F0075E09380F0B096E0438F00B86
:100E0800092604380F0B046E0538F00B0426053844
:100E18000F0B056E074E57EF07F0D89005320432D6
:100E28000932074E57EF07F0D890053204320932DD
:100E3800074E57EF07F0D89005320432093257EFC2
:100E480007F0030E076442EF07F0075E09380F0B3F
:100E5800096E0438F00B092604380F0B046E0538A8
:100E6800F00B042605380F0B056E0638F00B052627
:100E780006380F0B066E074E57EF07F0D89006326C
:100E8800053204320932074E57EF07F0D890063280
:100E9800053204320932074E57EF07F0D890063270
:100EA800053204320932086A000E0EAE64EF07F00C
:100EB800091E041E051E061E092A042205220622F2
:100EC800095008260450002205500122065002222B
:100ED8000EBE7BEF07F0D8A08AEF07F0023201328E
:100EE80000320832033E8AEF07F094EF07F0D8B0DB
:100EF8008FEF07F0000E081E001E011E021E082AB2
:100F08000022012202220A7E8FEF07F0010E0C6EEA
:100F180092DC9CEF07F0020E0C6E8DDC9CEF07F064
:100F2800040E0C6E61EC02F09CEF07F0000E0C6EE4
:020F38001200A5
:100F3A000FD0800E736E19D0C00E736E16D0940E39
:100F4A00736E13D0D40E736E10D0800E736E0DD0E4
:100F5A007350010AEEE07350020AEEE07350030A7E
:100F6A00EEE07350040AEEE0F0D77404006E73509A
:100F7A00002600C073F000C085F06DEC02F06490AA
:100F8A00776A77507524E96E000E7620EA6EEE5283
:100F9A000CE077507524E96E000E7620EA6EEECFEB
:0E0FAA0081F0B9EC03F0772AECD764801200D6
:100FB8007F6A0001806B73C07BF074C07CF075C0E1
:100FC8007DF076C07EF07E50FF0A08E17D50FF0A72
:100FD80005E17C50FF0A02E17B50FF0A0DE177C072
:100FE80081F078C082F0460E836F000E846FF8ECB3
:100FF80003F0030E006EEDD1010E796E7DAE0ED0BA
:10100800800E7D18006E00C07DF0792A77C0E1FF60
:1010180078C0E2FF2D0EE66E774A782A000E006E41
:101028007E1808E100507D1805E100507C1802E1A7
:101038007B50000A0CE177C081F078C082F0370E4F
:10104800836F000E846FF8EC03F0006AC2D17E5003
:10105800FF0A08E17D50000A05E17C50000A02E120
:101068007B50000A0DE177C081F078C082F0390E1C
:10107800836F000E846FF8EC03F079C000F0A9D1FB
:10108800000E046E000E056E000E066E7F0E076ED3
:101098007BC000F07CC001F07DC002F07EC003F090
:1010A800B3EC02F0010ED8B0000E006E00521CE046
:1010B8007BC000F07CC001F07DC002F07EC003F070
:1010C800000E046E000E056E200E066E820E076E70
:1010D8001AEC03F000C07BF001C07CF002C07DF088
:1010E80003C07EF08007CCD7000E046E000E056E9C
:1010F800200E066E820E076E7BC000F07CC001F0E9
:101108007DC002F07EC003F0B3EC02F0000ED8B050
:10111800010E006E00521CE07BC000F07CC001F0A4
:101128007DC002F07EC003F0CD0E046ECC0E056EBD
:101138004C0E066E7B0E076E1AEC03F000C07BF0B7
:1011480001C07CF002C07DF003C07EF0802BCCD7BC
:10115800FF0E7B14086EFF0E7C14096E7F0E7D1443
:101168000A6E000E7E140B6E08C004F009C005F06C
:101178000AC006F00BC007F00436049005360636A0
:101188000736000E7B14006E000E7C14016E000EF4
:101198007D14026EFF0E7E14036E00C07BF001C04A
:1011A8007CF002C07DF003C07EF004507B10006E1E
:1011B80005507C10016E06507D10026E07507E109F
:1011C800036E00C07BF001C07CF002C07DF003C05C
:1011D8007EF07F0E7E5C006E00C07AF0010E7E6E9F
:1011E80000C004F07BC000F07CC001F07DC002F0BC
:1011F8007EC003F0045007E0003600900136023646
:101208000336FF0FF8D700C07BF001C07CF002C0A6
:101218007DF003C07EF077C0E1FF78C0E2FF7E502A
:10122800300FE66E774A782A800E8019006E800E9D
:10123800010A005C08E3800E060A006E800E801921
:10124800005C01E30AD077C0E1FF78C0E2FF2E0E10
:10125800E66E774A782A010E7F6E060E7A6E7A500D
:10126800000A54E07E6A7BC000F07CC001F07DC0BB
:1012780002F07EC003F000360090013602360336D5
:10128800003600900136023603367B5000267C502B
:1012980001227D5002227E50032200C07BF001C053
:1012A8007CF002C07DF003C07EF07BC000F07CC003
:1012B80001F07DC002F07EC003F0003600900136D8
:1012C8000236033600C07BF001C07CF002C07DF01E
:1012D80003C07EF077C0E1FF78C0E2FF7E50300F98
:1012E800E66E774A782A7F50000A0EE1800780511F
:1012F800000A0AE177C0E1FF78C0E2FF2E0EE66E31
:10130800774A782A010E7F6E7A06A9D7FF0E7724CE
:10131800E96EFF0E7820EA6EEE50300A05E1010E04
:10132800775E000E785AF2D7FF0E7724E96EFF0E2B
:101338007820EA6EEE502E0A04E1010E775E000E68
:10134800785A8051000A3FE077C0E1FF78C0E2FF99
:10135800650EE66E774A782A800E8019006E800E38
:10136800000A005C0BE277C0E1FF78C0E2FF2D0EB7
:10137800E66E774A782A80510008806F80C07AF03C
:10138800805109080FE20A0E046E7AC000F0AAEC38
:1013980003F077C0E1FF78C0E2FF0050300FE66E3F
:1013A800774A782A0A0E046E7AC000F0AAEC03F095
:1013B80008C000F077C0E1FF78C0E2FF0050300FAE
:1013C800E66E774A782A77C0E1FF78C0E2FFE66ADE
:0413D800006A120095
:1013DC0031EC0AF096809384F092F088F18CF19EB7
:1013EC009E9C9D8CD09EF294F28AF28CF28EC00E52
:1013FC00C16E690EC26E25EC05F0840ED56E0B0E17
:0A140C00D76EDC0ED66EFFD7FFD7B7
:1014620010EE19F04B0E006E010E016E160EF66EA6
:0E147200140EF76E000EF86E70EC05F012000E
:0714160020204E2F6D320073
:09141D0020204B672F636D3200A3
:0714260020206D42617200FD
:07142D0020206D6D486700EF
:02143400300086
:04143600494E4600D5
:09143A0020204B702F636D32007D
:041443004E614E00A8
:021447000000A3
:04144900000000009F
:02144D0000009D
:06144F002020505349006B
:06145500202041746D002F
:06145B0020204B5061004F
:020000040030CA
:0D000100220F0EFF0181FF0FC00FE00F4026
:00000001FF
