:0400000020EF00F0FD
:1000080000C015F0F2A80DD0F2A20BD0F292162A79
:1000180016500A0A06E1166A172A17500A0AD8B4AF
:08002800176A15C000F0110079
:100030000900F5CFE6FF0006FBE10106F9E1120039
:10004000166A176A3F0E186E060E196E5B0E1A6E50
:100050004F0E1B6E660E1C6E6D0E1D6E7D0E1E6E9F
:10006000070E1F6E7F0E206E6F0E216E010E936EB7
:10007000816A946A956A826A836AF19CF292F28834
:10008000F29CF28EF19E180EE96E000EEA6E175089
:10009000E926D8B0EA2AEECF82FFFE0E836E340E38
:1000A0000C6EF10E0D6E0D2EFED70C2EFCD700003F
:1000B0000000FF0E836E180EE96E000EEA6E1650F9
:1000C000E926D8B0EA2AEECF82FFFD0E836E340E09
:1000D0000C6EF10E0D6E0D2EFED70C2EFCD700000F
:0A00E0000000FF0E836ECFD7FFD79C
:020000040030CA
:0D000100220F0EFF0181FF0FC00FE00F4026
:00000001FF
