:0400000030EF00F0ED
:1000080000C015F0F0A00BD0F0A609D08280840EB5
:10001800D56E0B0ED76EDC0ED66EF096F28AF2A471
:100028000ED00B0ED76EDC0ED66EF294162A165032
:10003800020A05E18290166AF090F086D59E16C0F5
:0800480083FF15C000F0110058
:100050000900F5CFE6FF0006FBE10106F9E1120019
:10006000166A9382816A946A8290956A836AF29C86
:10007000D09EF294F29AF19AF090F086F28EFFD729
:02008000FFD7A8
:020000040030CA
:0D000100220F0EFF0181FF0FC00FE00F4026
:00000001FF
