:0400000091EF00F08C
:1000080000C016F001C015F0F2A043D01A5207E163
:10001800800ED56ED76AD66A010E1A6E37D0D6CF43
:1000280017F0000E186ED7CF01F0006A005017269F
:1000380001501822196A020E195C26E22FD80050C6
:10004800010A01E0FBD7030E026E19C000F0000E92
:10005800016E025005E0003600900136FF0FFAD716
:1000680000C002F017C000F018C001F0025007E00D
:1000780001320032019E01BC018EFF0FF8D700C08B
:100088002CF011D8192AD7D71A6AD59E81CF1BF020
:0C009800F29016C000F015C001F011003D
:0A00A400000EACB2010E006E120057
:0E00AE00ACB202D00000FCD72CC0ADFF120097
:1000BC00AE0E246E000E256E2C0E266E000E276ED4
:1000CC00FF0E286EFF0E296E000E2A6E000E2B6E90
:1000DC00FF0E1C6EFF0E1D6E000E1E6E000E1F6EB0
:1000EC00A40E206E000E216E000E226E000E236EEA
:1000FC00AC8A900EAB6E948E949C9EAA03D0AECF1D
:06010C0000F0FBD7120019
:100112000900F5CFE6FF0006FBE10106F9E1120056
:10012200176A186A196A1A6A1B6A939081909388EF
:10013200949C828CF29CD09E81CF1BF0F290F2862E
:10014200F28E330EAF6EAC84B8DF040E0B6E0C0E63
:100152000C6E330E0D6E0D2EFED70C2EFCD70B2E11
:10016200FAD7000000008180060E0D6E0D2EFED71C
:1001720000008190100E0B6E390E0C6E0D0E0D6E7E
:100182000D2EFED70C2EFCD70B2EFAD70000000046
:04019200EAD7FFD7D2
:020000040030CA
:0D000100220F0EFF0181FF0FC00FE00F4026
:00000001FF
