:1000000016EF00F00000000000EF00F0000000001C
:0A0010000000000000000000F3D71C
:10001C000900F5CFE6FF0006FBE10106F9E112004D
:10002C003F0E156E060E166E5B0E176E4F0E186E8B
:10003C00660E196E6D0E1A6E7D0E1B6E070E1C6E03
:10004C007F0E1D6E6F0E1E6E946A956A826AFF0E8D
:10005C00836E016A060E015C42E2150EE96E000E1B
:10006C00EA6E0150E926D8B0EA2AEECF05F0026A12
:10007C000250090832E3150EE96E000EEA6E0250CA
:10008C00E926D8B0EA2AEECF04F0036A190E035C15
:10009C0022E205C082FFFE0E836E340E0C6EF10E52
:1000AC000D6E0D2EFED70C2EFCD700000000FF0E9F
:1000BC00836E04C082FFFD0E836E340E0C6EF10E47
:1000CC000D6E0D2EFED70C2EFCD700000000FF0E7F
:1000DC00836E032ADBD7022ACBD7012ABBD7B9D729
:0200EC00FFD73C
:020000040030CA
:0D000100220F0EFF0181FF0FC00FE00F4026
:00000001FF
