:04000000CDEF08F048
:1000080000C018F001C017F00CC016F00DC015F0B4
:10001800F2A20DD0000E305C02E1020E2F5C03E26A
:100028002F4A302A02D02F6A306AF2929E8C9EACF8
:10003800DED0C3CF31F0000E326EC4CF01F0006ABB
:100048000050312601503222000E301802E1000E15
:100058002F1835E131C000F032C001F055EC06F040
:10006800710E046E3D0E056E7A0E066E7D0E076EDD
:1000780041D900C033F001C034F002C035F003C0EC
:1000880036F000C046F001C047F002C048F003C097
:1000980049F0380E4A6E000E4B6E6AEC06F0010EFF
:1000A800466E010E476E380E486E000E496E8EEC95
:1000B80008F02B0E466E000E476E78EC08F0000E26
:1000C800301802E1010E2F1847E131C000F032C0AC
:1000D80001F055EC06F0710E046E3D0E056E7A0EB9
:1000E800066E7D0E076E06D9660E046E660E056EE8
:1000F800660E066E7F0E076EFDD8000E046E000EAB
:10010800056E000E066E840E076E50DB00C033F0DD
:1001180001C034F002C035F003C036F000C046F02C
:1001280001C047F002C048F003C049F0380E4A6EDB
:10013800000E4B6E6AEC06F0010E466E010E476E1D
:10014800380E486E000E496E8EEC08F01D0E466E95
:10015800000E476E78EC08F0000E301802E1020E2F
:100168002F183EE131C000F032C001F055EC06F026
:10017800710E046E3D0E056E7A0E066E7D0E076ECC
:10018800B9D8000E046E800E056E080E066E870E36
:10019800076E0CDB00C033F001C034F002C035F04C
:1001A80003C036F000C046F001C047F002C048F076
:1001B80003C049F0380E4A6E000E4B6E6AEC06F02A
:1001C800010E466E010E476E380E486E000E496EDF
:1001D8008EEC08F0190E466E000E476E78EC08F0AB
:1001E800850ED56E0B0ED76EDC0ED66E9E9CF2A4D5
:1001F80003D0C284D59EF29418C000F017C001F055
:0A02080016C00CF015C00DF0110037
:100212000F0E0C6E470E0D6E0D2EFED70C2EFCD758
:06022200000000001200C4
:06022800000000001200BE
:0A022E00210E0D6E0D2EFED71200FA
:100238000B820BAE26EF01F00368026801680068C4
:080248000A360232FF0E12001B
:0E025000026A016A006A086A036A000E120060
:08025E000AAE029E000E120020
:100266000B840BAE3EEF01F0010E036E026A016ACB
:0A027600006A0A360232FF0E120081
:1002800058BE02D0839E01D0838E58BC02D0839C7E
:1002900001D0838C58BA02D0839A01D0838A58B88F
:1002A00002D0839801D0838837B002D0838401D0F4
:1002B00083948386B9DF839658B602D0839E01D09B
:1002C000838E58B402D0839C01D0838C58B202D064
:1002D000839A01D0838A58B002D0839801D0838852
:1002E00037B002D0838401D0839483869DDF8396C8
:0C02F00037A002D08EDF01D09ADF120090
:1002FC00086A096A000E0762036403EF02F00250F9
:10030C0006180A6E075003267E0ED8A094EF01F053
:10031C00035ED8B007EF02F098EF01F0035ED8A0AF
:10032C000BEF02F0028E068E02C00EF001C00BF035
:10033C0000C00DF000500402F4CF0CF00150050287
:10034C00F4CF00F0F3CF08F00402F3500C26F45075
:10035C000822000E00220D500502F3500C26F4501A
:10036C000822000E002202500402F3500826F4501A
:10037C00002202500502016A000E0122F3500026F1
:10038C00F45001220D500602F3500826F4500022BE
:10039C00026A000E012202220B500602F3500026C4
:1003AC00F4500122000E02220E500602F3500126D8
:1003BC00F450022202BEEBEF01F008360036013693
:1003CC0002360306D8B40BEF02F0FEEF01F0D88032
:1003DC00800E08640030000E002201220222D8A0F8
:1003EC00FEEF01F0023201320032034A07EF02F055
:1003FC000AAE029E000E0DEF02F0010E23DF0DEF90
:10040C0002F0020E13DF0DEF02F0040E26DF1200D5
:10041C000C6A0E6A0250D8A427EF02F001C002F059
:10042C0000C001F0006A0E860250D8A427EF02F03B
:10043C0001C002F0016A0E960E880250D8B439EF52
:10044C0002F00E50035ED8A4D8A03EEF02F0D89074
:10045C0002BE43EF02F0003601360236032E2EEFB9
:10046C0002F03EEF02F0010E0C6EECDE46EF02F0F5
:10047C00020E0C6EF2DE46EF02F0040E0C6EE9DE9C
:02048C0012005C
:0C048E00379054C058F0F5DE37801200A3
:10049A00086A080E0C6E003408360450085ED8B09C
:0E04AA0002D00826D89000360C2EF5D712008E
:1004B8000A6A0350D8A40A800750D8A40A820A50AE
:1004C800D8B4BFEF02F0030AD8B478EF02F00AB04C
:1004D80073EF02F006AEBDEF02F0BBEF02F002AE22
:1004E800BBEF02F0BDEF02F00250800B0A6E029ED5
:1004F8000650800B069E0A18D8B489EF02F00A50FD
:10050800D8B4BBEF02F0BDEF02F00750035CD8B4DB
:1005180093EF02F0D8A0AFEF02F0B5EF02F006506B
:10052800025CD8B49DEF02F0D8A0AFEF02F0B5EFAF
:1005380002F00550015CD8B4A7EF02F0D8A0AFEFE5
:1005480002F0B5EF02F00450005CD8B4BFEF02F03F
:10055800D8B0B5EF02F00A52D8B4BDEF02F0BBEF45
:1005680002F00A52D8B4BBEF02F0BDEF02F0D88017
:0E0578001200D8901200D880D8841200120011
:100586000CB005EF03F00CA2ABEF03F00E6A000E01
:1005960002641CEF03F0F00E0214D8A4E7EF02F099
:1005A600023A01380F0B02260138F00B016E0038B3
:1005B6000F0B01260038F00B006E08380F0B0026D3
:1005C6000838F00B086E0E84D89002BE00EF03F0D8
:1005D60008360036013602360E2A02BE00EF03F058
:1005E60008360036013602360E2A02BE00EF03F048
:1005F60008360036013602360E2A0E500364A1EF85
:1006060003F0035E0BBC08AEA6EF03F0D880800EA5
:1006160008640030000E002201220222D8A0A6EFB4
:1006260003F0023201320032034AABEF03F0A6EFC9
:1006360003F001C002F000C001F008C000F0086A33
:10064600000E0E86026453EF03F0F00E0214D8A4D7
:100656003BEF03F0023A01380F0B02260138F00B8C
:10066600016E00380F0B01260038F00B006E0E8469
:10067600D89002BE00EF03F00036013602360E2A8D
:1006860002BE00EF03F00036013602360E2A02BE25
:1006960000EF03F00036013602360E2A00EF03F0B3
:1006A60001C002F000C001F0006A000E0E960E882E
:1006B600026480EF03F0F00E0214D8A46BEF03F08F
:1006C600023A01380F0B02260138F00B016E0E8438
:1006D600D89002BE00EF03F0013602360E2A02BEA3
:1006E60000EF03F0013602360E2A02BE00EF03F0D9
:1006F600013602360E2A00EF03F001C002F0016A4D
:10070600000E0E860264B0EF03F0F00E0214D8A4B9
:100716008FEF03F0023A0E84D89002BE00EF03F08A
:1007260002360E2A02BE00EF03F002360E2A02BE81
:1007360000EF03F002360E2A00EF03F0010E0C6EF6
:100746008FDDB3EF03F0020E0C6E86DDB3EF03F020
:10075600040E0C6E6EDDB3EF03F0080E0C6E75DD45
:0207660012007F
:1007680054C004F055C005F004C002F005C003F001
:10077800044A052A56C000F057C001F0564A572AC5
:1007880000C0E9FF01C0EAFF02C0E1FF03C0E2FFC9
:10079800EECFE6FF02C0E9FF03C0EAFFEE5201E038
:0C07A800E3D754C000F055C001F012006F
:1007B400025006180E6E086A096A0B6A0350076431
:1007C400CDEF04F006500A6E068E028E03500B6EB7
:1007D4000750036E000E0B641DEF04F00B50075E10
:1007E400D8B4BEEF04F0070E07648CEF04F0075E84
:1007F40000C008F001C000F002C001F0026A074E18
:10080400BEEF04F0076461EF04F0075E00C008F077
:1008140001C000F0016A074EBEEF04F007643FEF29
:1008240004F0075E00C008F0006A074EBEEF04F053
:10083400076426EF04F00AC002F005C001F004C00A
:1008440000F0086AE8EF05F0030E076431EF04F0E6
:10085400075E08380F0B086E074EBEEF04F0D89001
:100864000832074EBEEF04F0D8900832074EBEEFB0
:1008740004F0D8900832BEEF04F0030E076450EF82
:1008840004F0075E08380F0B086E0038F00B0826DA
:1008940000380F0B006E074EBEEF04F0D890003204
:1008A4000832074EBEEF04F0D89000320832074EEB
:1008B400BEEF04F0D89000320832BEEF04F0030E0D
:1008C400076478EF04F0075E08380F0B086E0038F1
:1008D400F00B082600380F0B006E0138F00B0026D1
:1008E40001380F0B016E074EBEEF04F0D8900132B1
:1008F40000320832074EBEEF04F0D89001320032C5
:100904000832074EBEEF04F0D890013200320832AC
:10091400BEEF04F0030E0764A9EF04F0075E083885
:100924000F0B086E0038F00B082600380F0B006E12
:100934000138F00B002601380F0B016E0238F00B62
:10094400012602380F0B026E074EBEEF04F0D8905A
:100954000232013200320832074EBEEF04F0D89062
:100964000232013200320832074EBEEF04F0D89052
:100974000232013200320832096A000E0EAEB2EFC2
:1009840005F0081E001E011E021E082A0022012274
:100994000222B2EF05F00750D8A4D3EF04F0E8EF39
:1009A40005F0096A02C00AF0028E068E0750035C45
:1009B400076ED8B4A5EF05F0070E076473EF05F0D2
:1009C400075E0450096E0550046E0650056E066AF3
:1009D400074EA5EF05F0070E076448EF05F0075E24
:1009E4000450096E0550046E056A074EA5EF05F024
:1009F400070E076426EF05F0075E0450096E046ACB
:100A0400074EA5EF05F0070E07640DEF05F00AC0C9
:100A140002F0E8EF05F0030E076418EF05F0075E37
:100A240009380F0B096E074EA5EF05F0D89009326F
:100A3400074EA5EF05F0D8900932074EA5EF05F053
:100A4400D8900932A5EF05F0030E076437EF05F0DF
:100A5400075E09380F0B096E0438F00B09260438B9
:100A64000F0B046E074EA5EF05F0D890043209323F
:100A7400074EA5EF05F0D89004320932074EA5EFD2
:100A840005F0D89004320932A5EF05F0030E07648F
:100A94005FEF05F0075E09380F0B096E0438F00BA1
:100AA400092604380F0B046E0538F00B04260538AC
:100AB4000F0B056E074EA5EF05F0D89005320432F2
:100AC4000932074EA5EF05F0D890053204320932F9
:100AD400074EA5EF05F0D890053204320932A5EF90
:100AE40005F0030E076490EF05F0075E09380F0B5D
:100AF400096E0438F00B092604380F0B046E053810
:100B0400F00B042605380F0B056E0638F00B05268E
:100B140006380F0B066E074EA5EF05F0D890063287
:100B2400053204320932074EA5EF05F0D89006329B
:100B3400053204320932074EA5EF05F0D89006328B
:100B4400053204320932086A000E0EAEB2EF05F027
:100B5400091E041E051E061E092A04220522062259
:100B64000950082604500022055001220650022292
:100B74000EBEC9EF05F0D8A0D8EF05F0023201325D
:100B840000320832033ED8EF05F0E2EF05F0D8B0AA
:100B9400DDEF05F0000E081E001E011E021E082ACD
:100BA4000022012202220A7EDDEF05F0010E0C6E06
:100BB400E8DCEAEF05F0020E0C6EE3DCEAEF05F088
:100BC400040E0C6E1CEC01F0EAEF05F0000E0C6E46
:020BD40012000D
:100BD600959695949598959A959C959E83968394CB
:100BE600839E839C839A839809EC01F009EC01F0BB
:100BF60009EC01F0838A8388838614EC01F08396DE
:100C060009EC01F0838614EC01F0839609EC01F0FF
:100C1600838614EC01F0839609EC01F083988386B1
:100C260014EC01F0839609EC01F0838614EC01F0D4
:100C36008396839A838E838614EC01F0839609EC5F
:100C460001F0839E8388838614EC01F08396839853
:100C5600838614EC01F0839609EC01F0838614EC8C
:100C660001F083968388838614EC01F0839609EC61
:100C760001F08398838614EC01F08396838E838C2F
:100C8600838A8388838614EC01F0839609EC01F04D
:040C96003780120091
:100C9A000900F5CFE6FF0006FBE10106F9E11200C3
:100CAA000050086E0150006E016A026A036A0B6AFC
:100CBA000C6A960E036E0A6A00C001F008C000F0C2
:0A0CCA00086A026A0EEC02F0120044
:100CD400526A536A46C04EF047C04FF048C050F0C5
:100CE40049C051F05150FF0A08E15050FF0A05E194
:100CF4004F50FF0A02E14E50FF0A0CE14AC054F083
:100D04004BC055F0210E566E000E576E2BDD030EB0
:100D1400006EEBD1010E4C6E50AE0ED0800E50180A
:100D2400006E00C050F04C2A4AC0E1FF4BC0E2FF05
:100D34002D0EE66E4A4A4B2A000E006E511808E149
:100D44000050501805E100504F1802E14E50000ABF
:100D54000BE14AC054F04BC055F0290E566E000EFC
:100D6400576E00DD006AC1D15150FF0A08E15050AE
:100D7400000A05E14F50000A02E14E50000A0CE15E
:100D84004AC054F04BC055F0250E566E000E576EF7
:100D9400E9DC4CC000F0A9D1000E046E000E056E13
:100DA400000E066E7F0E076E4EC000F04FC001F0BD
:100DB40050C002F051C003F05CEC02F0010ED8B058
:100DC400000E006E00521CE04EC000F04FC001F057
:100DD40050C002F051C003F0000E046E000E056E08
:100DE400200E066E820E076E7EEC01F000C04EF0FF
:100DF40001C04FF002C050F003C051F05306CCD7ED
:100E0400000E046E000E056E200E066E820E076E36
:100E14004EC000F04FC001F050C002F051C003F0CA
:100E24005CEC02F0000ED8B0010E006E00521CE023
:100E34004EC000F04FC001F050C002F051C003F0AA
:100E4400CD0E046ECC0E056E4C0E066E7B0E076E38
:100E54007EEC01F000C04EF001C04FF002C050F033
:100E640003C051F0532ACCD7FF0E4E14086EFF0E68
:100E74004F14096E7F0E50140A6E000E51140B6E3F
:100E840008C004F009C005F00AC006F00BC007F062
:100E940004360490053606360736000E4E14006EEE
:100EA400000E4F14016E000E5014026EFF0E51140A
:100EB400036E00C04EF001C04FF002C050F003C0FA
:100EC40051F004504E10006E05504F10016E065044
:100ED4005010026E07505110036E00C04EF001C056
:100EE4004FF002C050F003C051F07F0E515C006E11
:100EF40000C04DF0010E516E00C004F04EC000F071
:100F04004FC001F050C002F051C003F0045007E09C
:100F140000360090013602360336FF0FF8D700C0C2
:100F24004EF001C04FF002C050F003C051F04AC06F
:100F3400E1FF4BC0E2FF5150300FE66E4A4A4B2AA4
:100F4400800E5318006E800E010A005C08E3800EC8
:100F5400060A006E800E5318005C01E30AD04AC0F2
:100F6400E1FF4BC0E2FF2E0EE66E4A4A4B2A010E09
:100F7400526E060E4D6E4D50000A54E0516A4EC03A
:100F840000F04FC001F050C002F051C003F0003631
:100F940000900136023603360036009001360236E0
:100FA40003364E5000264F50012250500222515019
:100FB400032200C04EF001C04FF002C050F003C045
:100FC40051F04EC000F04FC001F050C002F051C0CB
:100FD40003F00036009001360236033600C04EF0AE
:100FE40001C04FF002C050F003C051F04AC0E1FF0D
:100FF4004BC0E2FF5150300FE66E4A4A4B2A525022
:10100400000A0EE153065350000A0AE14AC0E1FF08
:101014004BC0E2FF2E0EE66E4A4A4B2A010E526E78
:101024004D06A9D7FF0E4A24E96EFF0E4B20EA6E47
:10103400EE50300A05E1010E4A5E000E4B5AF2D71B
:10104400FF0E4A24E96EFF0E4B20EA6EEE502E0A84
:1010540004E1010E4A5E000E4B5A5350000A3FE071
:101064004AC0E1FF4BC0E2FF650EE66E4A4A4B2AD6
:10107400800E5318006E800E000A005C0BE24AC01A
:10108400E1FF4BC0E2FF2D0EE66E4A4A4B2A535055
:101094000008536E53C04DF0535009080FE20A0E76
:1010A400046E4DC000F04DEC02F04AC0E1FF4BC0AD
:1010B400E2FF0050300FE66E4A4A4B2A0A0E046ED5
:1010C4004DC000F04DEC02F008C000F04AC0E1FF52
:1010D4004BC0E2FF0050300FE66E4A4A4B2A4AC02A
:0C10E400E1FF4BC0E2FFE66A006A120068
:1010F000486A48504624E96E000E4720EA6EEE52D8
:101100000CE048504624E96E000E4720EA6EEECF10
:0C11100054F047EC02F0482AECD7120023
:10111C000FD0800E466E19D0C00E466E16D0940EAF
:10112C00466E13D0D40E466E10D0800E466E0DD087
:10113C004650010AEEE04650020AEEE04650030A21
:10114C00EEE04650040AEEE0F0D74704006E46503D
:10115C00002600C046F000C058F040EC01F037907B
:10116C004A6A4A504824E96E000E4920EA6EEE5253
:10117C000CE04A504824E96E000E4920EA6EEECF8E
:0E118C0054F047EC02F04A2AECD737801200EC
:10119A00F7EC08F096829380F292F288F18C9E9C8A
:1011AA009D8CD09EF294F28AF28CF28EC00EC16EA1
:1011BA00710EC26E0BDD850ED56E0B0ED76EDC0E70
:0611CA00D66EFFD7FFD72F
:1011EE0010EE19F01E0E006E010E016ED00EF66E90
:0E11FE00110EF76E000EF86E4DEC06F01200AA
:0411D00020204B0090
:0411D4002020460091
:0411D8004E614E0016
:0411DC00494E460032
:0211E0003000DD
:0411E2002020430086
:0211E600000007
:0211E800000005
:0411EA000000000001
:020000040030CA
:0D000100220F0EFF0181FF0FC00FE00F4026
:00000001FF
