:1000000016EF00F00000000000EF00F0000000001C
:0A0010000000000000000000F3D71C
:10001C000900F5CFE6FF0006FBE10106F9E112004D
:10002C00926A936A946A010E806E010E816E826AE6
:10003C00010E826E010E806E030E0B6E8A0E0C6E1C
:10004C00550E0D6E0D2EFED70C2EFCD70B2EFAD79F
:10005C0000000000026A070E025C1CE282CF00F076
:10006C000036009000C082FF80CF00F00036009078
:10007C0000C080FF030E0B6E8A0E0C6E550E0D6EBB
:10008C000D2EFED70C2EFCD70B2EFAD7000000003D
:10009C00022AE1D7026A070E025C1CE282CF00F052
:1000AC000032009E00C082FF80CF00F00032009E24
:1000BC0000C080FF030E0B6E8A0E0C6E550E0D6E7B
:1000CC000D2EFED70C2EFCD70B2EFAD700000000FD
:1000DC00022AE1D7FF0E826E030E0B6E8A0E0C6E97
:1000EC00550E0D6E0D2EFED70C2EFCD70B2EFAD7FF
:0800FC00000000009DD7FFD7B2
:020000040030CA
:0D000100220F0EFF0181FF0FC00FE00F4026
:00000001FF
