:0400000049EF05F0CF
:1000080000C019F001C018F00BC017F00CC016F0B2
:100018000DC015F09EAA5DD0296A2A6A1E6A020ED2
:100028001E5C27E26CDA0050010A01E0FBD720ECE5
:1000380005F0030E036E1EC001F0000E026E0350A1
:1000480005E0013601900236FF0FFAD701C003F030
:1000580000C001F0000E026E035005E00136019069
:100068000236FF0FFAD70150292602502A221E2AEB
:10007800D6D729C000F02AC001F029EC05F0CF0E30
:10008800046EBD0E056E070E066E790E076E34D926
:1000980000C01AF001C01BF002C01CF003C01DF024
:1000A80000C04AF001C04BF002C04CF003C04DF054
:1000B8002B0E4E6E000E4F6EB7DAE10E5C6E4BD80B
:1000C800010E4A6E010E4B6E2B0E4C6E000E4D6EDD
:1000D8006EDA19C000F018C001F017C00BF016C096
:0800E8000CF015C00DF0110031
:1000F0000F0E0C6E470E0D6E0D2EFED70C2EFCD77C
:06010000000000001200E7
:06010600000000001200E1
:0A010C00210E0D6E0D2EFED712001D
:100116000B840BAE96EF00F0010E036E026A016AC5
:0A012600006A0A360232FF0E1200D2
:100130000B820BAEA2EF00F0036802680168006852
:080140000A360232FF0E120024
:0E014800026A016A006A086A036A000E120069
:080156000AAE029E000E120029
:10015E005CBE02D0819E01D0818E5CBC02D0819C9F
:10016E0001D0818C5CBA02D0819A01D0818A5CB8B0
:10017E0002D0819801D0818841B002D0828001D016
:10018E0082908282B9DF82925CB602D0819E01D0CB
:10019E00818E5CB402D0819C01D0818C5CB202D085
:1001AE00819A01D0818A5CB002D0819801D0818879
:1001BE0041B002D0828001D0829082829DDF8292F5
:0C01CE0041A002D08EDF01D09ADF1200A9
:1001DA000A6A0350D8A40A800750D8A40A820A508F
:1001EA00D8B450EF01F0030AD8B409EF01F00AB00D
:1001FA0004EF01F006AE4EEF01F04CEF01F002AE53
:10020A004CEF01F04EEF01F00250800B0A6E029E95
:10021A000650800B069E0A18D8B41AEF01F00A504D
:10022A00D8B44CEF01F04EEF01F00750035CD8B49C
:10023A0024EF01F0D8A040EF01F046EF01F006509C
:10024A00025CD8B42EEF01F0D8A040EF01F046EFDF
:10025A0001F00550015CD8B438EF01F0D8A040EFA6
:10026A0001F046EF01F00450005CD8B450EF01F001
:10027A00D8B046EF01F00A52D8B44EEF01F04CEF75
:10028A0001F00A52D8B44CEF01F04EEF01F0D880D9
:0E029A001200D8901200D880D88412001200F2
:1002A80058C004F059C005F004C002F005C003F0BE
:1002B800044A052A5AC000F05BC001F05A4A5B2A7A
:1002C80000C0E9FF01C0EAFF02C0E1FF03C0E2FF8E
:1002D800EECFE6FF02C0E9FF03C0EAFFEE5201E0FD
:0C02E800E3D758C000F059C001F012002C
:0C02F400419058C05CF031DF41801200E6
:10030000086A096A000E0762036405EF02F00250F2
:1003100006180A6E075003267E0ED8A096EF01F04D
:10032000035ED8B009EF02F09AEF01F0035ED8A0A7
:100330000DEF02F0028E068E02C00EF001C00BF02F
:1003400000C00DF000500402F4CF0CF00150050283
:10035000F4CF00F0F3CF08F00402F3500C26F45071
:100360000822000E00220D500502F3500C26F45016
:100370000822000E002202500402F3500826F45016
:10038000002202500502016A000E0122F3500026ED
:10039000F45001220D500602F3500826F4500022BA
:1003A000026A000E012202220B500602F3500026C0
:1003B000F4500122000E02220E500602F3500126D4
:1003C000F450022202BEEDEF01F00836003601368D
:1003D00002360306D8B40DEF02F000EF02F0D88029
:1003E000800E08640030000E002201220222D8A0F4
:1003F00000EF02F0023201320032034A09EF02F04C
:100400000AAE029E000E0FEF02F0010E9DDE0FEF0E
:1004100002F0020E8DDE0FEF02F0040E7CDE120001
:100420000C6A0E6A0250D8A429EF02F001C002F053
:1004300000C001F0006A0E860250D8A429EF02F035
:1004400001C002F0016A0E960E880250D8B43BEF4C
:1004500002F00E50035ED8A4D8A040EF02F0D8906E
:1004600002BE45EF02F0003601360236032E30EFB1
:1004700002F040EF02F0010E0C6E66DE48EF02F073
:10048000020E0C6E48DE48EF02F0040E0C6E63DEC6
:02049000120058
:10049200086A080E0C6E003408360450085ED8B0A4
:0E04A20002D00826D89000360C2EF5D7120096
:1004B000FF0E3D6EFF0E3E6EFF0E3F6EFF0E406E56
:1004C000400E396E0A0E3A6E000E3B6E000E3C6E08
:1004D000060E466E050E476E000E486E000E496E03
:1004E000FF0E426EFF0E436E000E446E000E456E10
:1004F000AC8A900EAB6E948E949C9EAA03D0AECF25
:0605000000F0FBD7120021
:0A050600000E9EBA010E006E1200F6
:100510000900F5CFE6FF0006FBE10106F9E1120054
:10052000949294909398939A939C939E82928290A3
:10053000819E819C819A8198DBDDDADDD9DD818A1B
:1005400081888282E0DD8292D3DD8282DCDD82924C
:10055000CFDD8282D8DD8292CBDD81988282D3DDAD
:100560008292C6DD8282CFDD8292819A818E8282E2
:10057000CADD8292BDDD819E81888282C4DD829245
:1005800081988282C0DD8292B3DD8282BCDD82925C
:1005900081888282B8DD8292ABDD81988282B3DD70
:1005A0008292818E818C818A81888282ACDD829266
:0605B0009FDD41801200F6
:1005B6000FD0800E4A6E19D0C00E4A6E16D0940E19
:1005C6004A6E13D0D40E4A6E10D0800E4A6E0DD0ED
:1005D6004A50010AEEE04A50020AEEE04A50030A87
:1005E600EEE04A50040AEEE0F0D74B04006E4A50A3
:1005F600002600C04AF000C05CF0AEDD41904E6AB5
:100606004E504C24E96E000E4D20EA6EEE520BE081
:100616004E504C24E96E000E4D20EA6EEECF58F097
:0A06260066DE4E2AEDD74180120077
:10063000566A576A4AC052F04BC053F04CC054F04F
:100640004DC055F05550FF0A08E15450FF0A05E12E
:100650005350FF0A02E15250FF0A0CE14EC058F01D
:100660004FC059F0250E5A6E000E5B6E1DDE030E54
:10067000006EE5D1010E506E54AE0ED0800E5418AF
:10068000006E00C054F0502A4EC0E1FF4FC0E2FFA0
:100690002D0EE66E4E4A4F2A000E006E551808E1E8
:1006A0000050541805E10050531802E15250000A5E
:1006B0000BE14EC058F04FC059F0230E5A6E000E99
:1006C0005B6EF2DD006ABBD15550FF0A08E1545061
:1006D000000A05E15350000A02E15250000A0CE101
:1006E0004EC058F04FC059F01F0E5A6E000E5B6E90
:1006F000DBDD50C000F0A3D1000E046E000E056ECD
:10070000000E066E7F0E076E52C000F053C001F05F
:1007100054C002F055C003F060DD010ED8B0000EE9
:10072000006E00521BE052C000F053C001F054C0F4
:1007300002F055C003F0000E046E000E056E200E90
:10074000066E820E076EDCDD00C052F001C053F071
:1007500002C054F003C055F05706CED7000E046E09
:10076000000E056E200E066E820E076E52C000F05F
:1007700053C001F054C002F055C003F02EDD000E4E
:10078000D8B0010E006E00521BE052C000F053C002
:1007900001F054C002F055C003F0CD0E046ECC0E33
:1007A000056E4C0E066E7B0E076EAADD00C052F081
:1007B00001C053F002C054F003C055F0572ACED701
:1007C000FF0E5214086EFF0E5314096E7F0E541460
:1007D0000A6E000E55140B6E08C004F009C005F037
:1007E0000AC006F00BC007F0043604900536063642
:1007F0000736000E5214006E000E5314016E000EE8
:100800005414026EFF0E5514036E00C052F001C066
:1008100053F002C054F003C055F004505210006E63
:1008200005505310016E06505410026E07505510BB
:10083000036E00C052F001C053F002C054F003C078
:1008400055F07F0E555C006E00C051F0010E556EE4
:1008500000C004F052C000F053C001F054C002F0D8
:1008600055C003F0045007E0003600900136023610
:100870000336FF0FF8D700C052F001C053F002C09A
:1008800054F003C055F04EC0E1FF4FC0E2FF555099
:10089000300FE66E4E4A4F2A800E5718006E800EBB
:1008A000010A005C08E3800E060A006E800E5718ED
:1008B000005C01E30AD04EC0E1FF4FC0E2FF2E0E04
:1008C000E66E4E4A4F2A010E566E060E516E51507C
:1008D000000A54E0556A52C000F053C001F054C001
:1008E00002F055C003F000360090013602360336A0
:1008F000003600900136023603365250002653501F
:100900000122545002225550032200C052F001C06F
:1009100053F002C054F003C055F052C000F053C071
:1009200001F054C002F055C003F0003600900136CB
:100930000236033600C052F001C053F002C054F03A
:1009400003C055F04EC0E1FF4FC0E2FF5550300FDD
:10095000E66E4E4A4F2A5650000A0EE1570657508F
:10096000000A0AE14EC0E1FF4FC0E2FF2E0EE66E24
:100970004E4A4F2A010E566E5106A9D7FF0E4E243D
:10098000E96EFF0E4F20EA6EEE50300A05E1010ECF
:100990004E5E000E4F5AF2D7FF0E4E24E96EFF0E48
:1009A0004F20EA6EEE502E0A04E1010E4E5E000E5C
:1009B0004F5A5750000A3DE04EC0E1FF4FC0E2FFE2
:1009C000650EE66E4E4A4F2A800E5718006E800E56
:1009D000000A005C0BE24EC0E1FF4FC0E2FF2D0EAB
:1009E000E66E4E4A4F2A57500008576E57C051F0D6
:1009F000575009080EE20A0E046E51C000F049DD9E
:100A00004EC0E1FF4FC0E2FF0050300FE66E4E4A8D
:100A10004F2A0A0E046E51C000F03BDD08C000F002
:100A20004EC0E1FF4FC0E2FF0050300FE66E4E4A6D
:100A30004F2A4EC0E1FF4FC0E2FFE66A006A120093
:100A4000AECF01F0ABA202D0AB98AB8801C000F0F2
:020A5000120092
:100A520000C008F00150006E016A026A036A0B6A64
:100A62000C6A016A026A036A960E036E0A6A00AE93
:100A720041EF05F0081E001E082AD8B4002A0A8E8B
:100A820000C001F008C000F0086A026AC8DC120067
:100A920076EC05F0948ED09E9E9A9D8AF28CF28E10
:100AA2003EDDB886B06ACF0EAF6EAC8400DD040EB8
:100AB2000B6E0C0E0C6E330E0D6E0D2EFED70C2E21
:0E0AC200FCD70B2EFAD700000000FFD7FFD79D
:100AEC0010EE1AF0110E006E010E016ED00EF66EA5
:0E0AFC000A0EF76E000EF86E88EC02F0120083
:040AD0000000000022
:010AD4000021
:040AD500494E460040
:020AD9003000EB
:040ADB004E614E001A
:020ADF00000015
:0A0AE1004C43445F434C4541520072
:020000040030CA
:0E000000000C1F1EFF8381FF0FC00FE00F409A
:00000001FF
